{
  "_format": "hh-sol-artifact-1",
  "contractName": "LibIdempotentFlagTest",
  "sourceName": "contracts/test/idempotent/LibIdempotentFlag/LibIdempotentFlagTest.sol",
  "abi": [
    {
      "inputs": [
        {
          "internalType": "IdempotentFlag",
          "name": "flag_",
          "type": "uint256"
        },
        {
          "internalType": "uint256",
          "name": "index_",
          "type": "uint256"
        }
      ],
      "name": "get",
      "outputs": [
        {
          "internalType": "bool",
          "name": "",
          "type": "bool"
        }
      ],
      "stateMutability": "pure",
      "type": "function"
    },
    {
      "inputs": [
        {
          "internalType": "IdempotentFlag",
          "name": "flag_",
          "type": "uint256"
        },
        {
          "internalType": "uint256",
          "name": "index_",
          "type": "uint256"
        }
      ],
      "name": "set",
      "outputs": [
        {
          "internalType": "uint256",
          "name": "",
          "type": "uint256"
        }
      ],
      "stateMutability": "pure",
      "type": "function"
    }
  ],
  "bytecode": "0x608060405234801561001057600080fd5b5060ec8061001f6000396000f3fe6080604052348015600f57600080fd5b506004361060325760003560e01c80631ab06ee5146037578063669e48aa146059575b600080fd5b604660423660046095565b6077565b6040519081526020015b60405180910390f35b606860643660046095565b6087565b60405190151581526020016050565b60006001821b83175b9392505050565b6000600183831c1615156080565b6000806040838503121560a757600080fd5b5050803592602090910135915056fea2646970667358221220943c8badf3c6fd835d697226d4cd775a3d99e7506feb6eb38b971c14e26f2d6564736f6c63430008110033",
  "linkReferences": {},
  "deployedLinkReferences": {}
}