{
  "_format": "hh-sol-artifact-1",
  "contractName": "StandardIntegrity",
  "sourceName": "contracts/interpreter/deploy/StandardIntegrity.sol",
  "abi": [
    {
      "inputs": [
        {
          "internalType": "bytes[]",
          "name": "sources_",
          "type": "bytes[]"
        },
        {
          "internalType": "uint256",
          "name": "constantsLength_",
          "type": "uint256"
        },
        {
          "internalType": "uint256[]",
          "name": "minStackOutputs_",
          "type": "uint256[]"
        }
      ],
      "name": "ensureIntegrity",
      "outputs": [
        {
          "internalType": "uint256",
          "name": "contextReads_",
          "type": "uint256"
        },
        {
          "internalType": "uint256",
          "name": "stackLength_",
          "type": "uint256"
        }
      ],
      "stateMutability": "view",
      "type": "function"
    }
  ],
  "bytecode": "0x608060405234801561001057600080fd5b506128c7806100206000396000f3fe608060405234801561001057600080fd5b506004361061002b5760003560e01c8063b697f55b14610030575b600080fd5b61004361003e3660046121c3565b61005c565b6040805192835260208301919091520160405180910390f35b6000808251855110156100d0576040517f08c379a000000000000000000000000000000000000000000000000000000000815260206004820152600e60248201527f4241445f4d534f5f4c454e47544800000000000000000000000000000000000060448201526064015b60405180910390fd5b60006040518060c00160405280878152602001868152602001600081526020016000815260200160008152602001610106610180565b9052905060005b845181101561015a5761014781600087848151811061012e5761012e612313565b602002602001015185610190909392919063ffffffff16565b508061015281612371565b91505061010d565b5060808101516060820151604083015161017391610282565b9250925050935093915050565b606061018b8161028f565b905090565b83516020848102909101015180516000919081015b808210156101ff57600080600484019350835161ffff8116915061ffff8160101c169250506101f68982898c60a0015186815181106101e6576101e6612313565b602002602001015163ffffffff16565b965050506101a5565b604087015161020e9086610282565b841115610277576040517f08c379a000000000000000000000000000000000000000000000000000000000815260206004820152600f60248201527f4d494e5f46494e414c5f535441434b000000000000000000000000000000000060448201526064016100c7565b509295945050505050565b6020828203045b92915050565b60606000604051806107a001604052806102a7603c90565b67ffffffffffffffff1667ffffffffffffffff1681526020016104c181526020016104da8152602001610536815260200161056d815260200161059481526020016105b1815260200161064c81526020016106cc815260200161077b815260200161087e815260200161089781526020016108a781526020016108b681526020016108c581526020016108d481526020016108a781526020016108e381526020016108f2815260200161090181526020016109118152602001610921815260200161092181526020016109218152602001610921815260200161092d81526020016109458152602001610954815260200161096381526020016109728152602001610981815260200161099081526020016109a181526020016109be815260200161099081526020016109cd81526020016109dc81526020016109eb81526020016109fa8152602001610a0a8152602001610a1a8152602001610a2a8152602001610a3a8152602001610a4a8152602001610a5a8152602001610a6a8152602001610a7a8152602001610a8a8152602001610a9a8152602001610aaa8152602001610ab98152602001610ac88152602001610ad78152602001610ae68152602001610af58152602001610b048152602001610b138152602001610b238152602001610b338152602001610b428152602001610bc4815250905060006104ab82610bd3565b90506104b78185610c45565b805b949350505050565b60006104d08483610c7b610c87565b90505b9392505050565b6040830151600090600f84811691600486901c90911690600886901c90610502888786610c9f565b604089015261051388838886610190565b50604088015161052590899085610cc1565b604090980152509495945050505050565b608083015160009060ff841690600885901c90610554908284610cd1565b60808701526105638685610db9565b9695505050505050565b600080839050610581856080015182610dc7565b60808601526120ac610563868583610eb1565b60008260038111156105a8576105a86123d8565b50909392505050565b600060ff8316600f8110610621576040517f08c379a000000000000000000000000000000000000000000000000000000000815260206004820152601260248201527f4f505f444f5f5748494c455f494e50555453000000000000000000000000000060448201526064016100c7565b60018101600481901b851761064161063a8883886104da565b8890610ebc565b979650505050505050565b6000600f83811690600485901c811690600886901c16600c86901c808201855b83811015610691576106848a60800151828701610dc7565b60808b015260010161066c565b506040890151600886901b600484901b178217906106b1908b9086610cc1565b97506106be8a828a6104da565b9a9950505050505050505050565b6000600c83901c600f80851690600486901c1680821015610749576040517f08c379a000000000000000000000000000000000000000000000000000000000815260206004820152600d60248201527f4c4f4f505f4e5f494e505554530000000000000000000000000000000000000060448201526064016100c7565b610fff861660005b8481101561076e576107648983896104da565b9650600101610751565b5094979650505050505050565b600060018381169084901c8161080757604086015161079a9085610282565b8110610802576040517f08c379a000000000000000000000000000000000000000000000000000000000815260206004820152600e60248201527f4f4f425f535441434b5f5245414400000000000000000000000000000000000060448201526064016100c7565b610874565b85602001518110610874576040517f08c379a000000000000000000000000000000000000000000000000000000000815260206004820152601160248201527f4f4f425f434f4e5354414e545f5245414400000000000000000000000000000060448201526064016100c7565b6105638685610db9565b60006120ac61088e858483610ee9565b95945050505050565b60006104d08483610ef786610f46565b60006104d08483610f56610c87565b60006104d08483610feb610eb1565b60006104d0848361105c6110f8565b60006104d08483611109610c87565b60006104d0848361115f610c87565b60006104d0848361120e6110f8565b60006104d0848361126b86611325565b60006104d0848361134386611350565b60006104d08483610db9565b60006104d061093c8584610ebc565b85906008610cc1565b60006104d0848361135d610eb1565b60006104d08483611369610c87565b60006104d0848361137f610c87565b60006104d08483611395610eb1565b60006104d084836113a1610eb1565b60006120ac61088e85848387610f46565b60006104d0826113ad6109b5866001612407565b87929190611325565b60006104d084836113bd610c87565b60006104d084836113c7610c87565b60006104d084836113d1610eb1565b60006104d084836113da610c87565b60006104d084836113e486610f46565b60006104d0848361141f86610f46565b60006104d0848361145086610f46565b60006104d0848361146686610f46565b60006104d0848361147286610f46565b60006104d0848361147e86610f46565b60006104d0848361148a86610f46565b60006104d084836114a086610f46565b60006104d084836114af86610f46565b60006104d084836114bb86610f46565b60006104d084836114c786610f46565b60006104d084836114d3611595565b60006104d084836115a6610eb1565b60006104d084836115f3610eb1565b60006104d08483611680610eb1565b60006104d08483611702610eb1565b60006104d0848361174f610eb1565b60006104d0848361179c6110f8565b60006104d084836117fb86611852565b60006104d08483611865866118ff565b60006104d08483611912610c87565b600060ff831680610baf576040517f08c379a000000000000000000000000000000000000000000000000000000000815260206004820152601660248201527f53454c4543545f4c54455f5a45524f5f494e505554530000000000000000000060448201526064016100c7565b61088e610bbd868584610c9f565b8690610db9565b60006104d08483611971610c87565b80518190603c14610c40576040517f08c379a000000000000000000000000000000000000000000000000000000000815260206004820152601260248201527f4241445f44594e414d49435f4c454e475448000000000000000000000000000060448201526064016100c7565b919050565b604051825182516020808302860101831115610c6057600080fd5b602081028301604052018352610c768282611989565b505050565b60006104d3838361199d565b60006104d0610c9885856002610c9f565b8590610db9565b60008115610cb9576020820283039250610cb98484611b78565b509092915050565b6020810282016104d38482611bf9565b6000828260108210610d3f576040517f08c379a000000000000000000000000000000000000000000000000000000000815260206004820152600a60248201527f4f4f425f434f4c554d4e0000000000000000000000000000000000000000000060448201526064016100c7565b60108110610da9576040517f08c379a000000000000000000000000000000000000000000000000000000000815260206004820152600760248201527f4f4f425f524f570000000000000000000000000000000000000000000000000060448201526064016100c7565b60016010860285011b8617610563565b602081016102898382611bf9565b600081600060108210610e36576040517f08c379a000000000000000000000000000000000000000000000000000000000815260206004820152600a60248201527f4f4f425f434f4c554d4e0000000000000000000000000000000000000000000060448201526064016100c7565b60108110610ea0576040517f08c379a000000000000000000000000000000000000000000000000000000000815260206004820152600760248201527f4f4f425f524f570000000000000000000000000000000000000000000000000060448201526064016100c7565b50505061ffff6010919091021b1790565b60006104d0610c9885855b7fffffffffffffffffffffffffffffffffffffffffffffffffffffffffffffffe081016102898382611b78565b60006104d084846002610c9f565b600081604051602001610f0a919061241a565b604080517fffffffffffffffffffffffffffffffffffffffffffffffffffffffffffffffe0818403018152919052805160209091012092915050565b600061088e610bbd868685610c9f565b6040517f70a0823100000000000000000000000000000000000000000000000000000000815273ffffffffffffffffffffffffffffffffffffffff8281166004830152600091908416906370a08231906024015b602060405180830381865afa158015610fc7573d6000803e3d6000fd5b505050506040513d601f19601f820116820180604052508101906104d39190612450565b60008173ffffffffffffffffffffffffffffffffffffffff166318160ddd6040518163ffffffff1660e01b8152600401602060405180830381865afa158015611038573d6000803e3d6000fd5b505050506040513d601f19601f820116820180604052508101906102899190612450565b6040517f4ee2cd7e00000000000000000000000000000000000000000000000000000000815273ffffffffffffffffffffffffffffffffffffffff83811660048301526024820183905260009190851690634ee2cd7e906044015b602060405180830381865afa1580156110d4573d6000803e3d6000fd5b505050506040513d601f19601f820116820180604052508101906104d09190612450565b60006104d0610c9885856003610c9f565b6040517f981b24d00000000000000000000000000000000000000000000000000000000081526004810182905260009073ffffffffffffffffffffffffffffffffffffffff84169063981b24d090602401610faa565b6040517f6352211e0000000000000000000000000000000000000000000000000000000081526004810182905260009073ffffffffffffffffffffffffffffffffffffffff841690636352211e90602401602060405180830381865afa1580156111cd573d6000803e3d6000fd5b505050506040513d601f19601f820116820180604052508101906111f19190612469565b73ffffffffffffffffffffffffffffffffffffffff169392505050565b6040517efdd58e00000000000000000000000000000000000000000000000000000000815273ffffffffffffffffffffffffffffffffffffffff8381166004830152602482018390526000919085169062fdd58e906044016110b7565b6040517f4e1273f400000000000000000000000000000000000000000000000000000000815260609073ffffffffffffffffffffffffffffffffffffffff851690634e1273f4906112c290869086906004016124da565b600060405180830381865afa1580156112df573d6000803e3d6000fd5b505050506040513d6000823e601f3d9081017fffffffffffffffffffffffffffffffffffffffffffffffffffffffffffffffe01682016040526104d0919081019061253d565b600061088e61133b868660016002870201610c9f565b869084610cc1565b8061134d57600080fd5b50565b600061088e858584610c9f565b60006104d38284611c0e565b60006104d0826113798587611c0e565b90611c8e565b60006104d08261138f8587611c0e565b90611ca3565b60006104d38284611cb8565b60006104d38284611d07565b606060008411610cb957816104d0565b60008183146104d3565b60008183116104d3565b60008115610289565b60008183106104d3565b60008282018381106113f657806104b9565b7fffffffffffffffffffffffffffffffffffffffffffffffffffffffffffffffff949350505050565b60008260000361143157506000610289565b82820282848281611444576114446123a9565b04036113f657806104b9565b60008183116114605760006104d3565b50900390565b60006104d38284612407565b60006104d382846125c3565b60006104d382846126f7565b600081831161149957816104d3565b5090919050565b600081831061149957816104d3565b60006104d38284612703565b60006104d38284612717565b60006104d3828461272e565b6040517fd97b2e4800000000000000000000000000000000000000000000000000000000815273ffffffffffffffffffffffffffffffffffffffff84811660048301528381166024830152604482018390526000919086169063d97b2e4890606401602060405180830381865afa158015611552573d6000803e3d6000fd5b505050506040513d601f19601f820116820180604052508101906115769190612450565b73ffffffffffffffffffffffffffffffffffffffff1695945050505050565b60006104d0610c9885856004610c9f565b60008173ffffffffffffffffffffffffffffffffffffffff1663ec14b06e6040518163ffffffff1660e01b8152600401602060405180830381865afa158015611038573d6000803e3d6000fd5b60008173ffffffffffffffffffffffffffffffffffffffff1663cd3293de6040518163ffffffff1660e01b8152600401602060405180830381865afa158015611640573d6000803e3d6000fd5b505050506040513d601f19601f820116820180604052508101906116649190612469565b73ffffffffffffffffffffffffffffffffffffffff1692915050565b60008173ffffffffffffffffffffffffffffffffffffffff1663f9020e336040518163ffffffff1660e01b8152600401602060405180830381865afa1580156116cd573d6000803e3d6000fd5b505050506040513d601f19601f820116820180604052508101906116f19190612741565b6003811115610289576102896123d8565b60008173ffffffffffffffffffffffffffffffffffffffff1663fc0c546a6040518163ffffffff1660e01b8152600401602060405180830381865afa158015611640573d6000803e3d6000fd5b60008173ffffffffffffffffffffffffffffffffffffffff166347e4bbb96040518163ffffffff1660e01b8152600401602060405180830381865afa158015611038573d6000803e3d6000fd5b6040517fdb8554fc00000000000000000000000000000000000000000000000000000000815273ffffffffffffffffffffffffffffffffffffffff8381166004830152602482018390526000919085169063db8554fc906044016110b7565b6040517f88d6860400000000000000000000000000000000000000000000000000000000815260009073ffffffffffffffffffffffffffffffffffffffff8516906388d68604906110b79086908690600401612762565b600061088e610bbd868660028601610c9f565b6040517fcaa0eb3b00000000000000000000000000000000000000000000000000000000815260009073ffffffffffffffffffffffffffffffffffffffff86169063caa0eb3b906118be90879087908790600401612791565b602060405180830381865afa1580156118db573d6000803e3d6000fd5b505050506040513d601f19601f8201168201806040525081019061088e9190612450565b600061088e610bbd868660038601610c9f565b60008060015b6008811161196957600061192c8683611d67565b9050600061193a8684611d67565b905060006119488383611450565b9050611958856001860383611e17565b945050600190920191506119189050565b509392505050565b60006104d08385600f16600487901c600f1685611ea1565b6000602083019050610c7681838551611f47565b60008060008473ffffffffffffffffffffffffffffffffffffffff1663feaf968c6040518163ffffffff1660e01b815260040160a060405180830381865afa1580156119ed573d6000803e3d6000fd5b505050506040513d601f19601f82011682018060405250810190611a1191906127e0565b5093505092505060008213611a82576040517f08c379a000000000000000000000000000000000000000000000000000000000815260206004820152600e60248201527f4d494e5f424153455f505249434500000000000000000000000000000000000060448201526064016100c7565b83611a8d824261272e565b10611af4576040517f08c379a000000000000000000000000000000000000000000000000000000000815260206004820152600b60248201527f5354414c455f505249434500000000000000000000000000000000000000000060448201526064016100c7565b61088e8573ffffffffffffffffffffffffffffffffffffffff1663313ce5676040518163ffffffff1660e01b8152600401602060405180830381865afa158015611b42573d6000803e3d6000fd5b505050506040513d601f19601f82011682018060405250810190611b669190612830565b60ff16611b7284611f6f565b90611c0e565b81604001518110158015611b8f5750816060015181105b611bf5576040517f08c379a000000000000000000000000000000000000000000000000000000000815260206004820152600f60248201527f535441434b5f554e444552464c4f57000000000000000000000000000000000060448201526064016100c7565b5050565b8160600151811115611bf55760609190910152565b60008082601203611c225783915050610289565b8260121115611c4e57506012829003611c46611c3f82600a6126f7565b859061141f565b915050610289565b507fffffffffffffffffffffffffffffffffffffffffffffffffffffffffffffffee8201611c7d81600a6126f7565b611c4690856125c3565b5092915050565b60006104d383670de0b6b3a764000084611fdf565b60006104d38383670de0b6b3a7640000611fdf565b60008160000b600003611ccc575081610289565b60008260000b1315611cf457611ced611ce683600a612853565b849061141f565b9050610289565b60ff600083900316611c7d81600a6126f7565b60008060128303611d1b5783915050610289565b8260121115611d3557506012829003611c7d81600a6126f7565b507fffffffffffffffffffffffffffffffffffffffffffffffffffffffffffffffee8201611c46611c3f82600a6126f7565b6000816008811115611dd5576040517f08c379a000000000000000000000000000000000000000000000000000000000815260206004820152600860248201527f4d41585f5449455200000000000000000000000000000000000000000000000060448201526064016100c7565b82600003611de65760009150611c87565b50507fffffffffffffffffffffffffffffffffffffffffffffffffffffffffffffffff016020021c63ffffffff1690565b6000826008811115611e85576040517f08c379a000000000000000000000000000000000000000000000000000000000815260206004820152600860248201527f4d41585f5449455200000000000000000000000000000000000000000000000060448201526064016100c7565b505060209190910290811b63ffffffff90911b19919091161790565b6000826008811115611f0f576040517f08c379a000000000000000000000000000000000000000000000000000000000815260206004820152600860248201527f4d41585f5449455200000000000000000000000000000000000000000000000060448201526064016100c7565b6000855b85811015611f3b5763ffffffff6020820290811b199890981685891b17979150600101611f13565b50959695505050505050565b8060200283015b80841015611f69578351835260209384019390920191611f4e565b50505050565b600080821215611fdb576040517f08c379a000000000000000000000000000000000000000000000000000000000815260206004820181905260248201527f53616665436173743a2076616c7565206d75737420626520706f73697469766560448201526064016100c7565b5090565b600080807fffffffffffffffffffffffffffffffffffffffffffffffffffffffffffffffff858709858702925082811083820303915050806000036120375783828161202d5761202d6123a9565b04925050506104d3565b80841161204357600080fd5b60008486880960026001871981018816978890046003810283188082028403028082028403028082028403028082028403028082028403029081029092039091026000889003889004909101858311909403939093029303949094049190911702949350505050565b6120b4612862565b565b7f4e487b7100000000000000000000000000000000000000000000000000000000600052604160045260246000fd5b604051601f82017fffffffffffffffffffffffffffffffffffffffffffffffffffffffffffffffe016810167ffffffffffffffff8111828210171561212c5761212c6120b6565b604052919050565b600067ffffffffffffffff82111561214e5761214e6120b6565b5060051b60200190565b600082601f83011261216957600080fd5b8135602061217e61217983612134565b6120e5565b82815260059290921b8401810191818101908684111561219d57600080fd5b8286015b848110156121b857803583529183019183016121a1565b509695505050505050565b6000806000606084860312156121d857600080fd5b833567ffffffffffffffff808211156121f057600080fd5b818601915086601f83011261220457600080fd5b8135602061221461217983612134565b82815260059290921b8401810191818101908a84111561223357600080fd5b8286015b848110156122de5780358681111561224f5760008081fd5b8701603f81018d136122615760008081fd5b84810135604088821115612277576122776120b6565b6122a7877fffffffffffffffffffffffffffffffffffffffffffffffffffffffffffffffe0601f850116016120e5565b8281528f828486010111156122bc5760008081fd5b8282850189830137600092810188019290925250845250918301918301612237565b5097505087013594505060408601359150808211156122fc57600080fd5b5061230986828701612158565b9150509250925092565b7f4e487b7100000000000000000000000000000000000000000000000000000000600052603260045260246000fd5b7f4e487b7100000000000000000000000000000000000000000000000000000000600052601160045260246000fd5b60007fffffffffffffffffffffffffffffffffffffffffffffffffffffffffffffffff82036123a2576123a2612342565b5060010190565b7f4e487b7100000000000000000000000000000000000000000000000000000000600052601260045260246000fd5b7f4e487b7100000000000000000000000000000000000000000000000000000000600052602160045260246000fd5b8082018082111561028957610289612342565b815160009082906020808601845b8381101561244457815185529382019390820190600101612428565b50929695505050505050565b60006020828403121561246257600080fd5b5051919050565b60006020828403121561247b57600080fd5b815173ffffffffffffffffffffffffffffffffffffffff811681146104d357600080fd5b600081518084526020808501945080840160005b838110156124cf578151875295820195908201906001016124b3565b509495945050505050565b604080825283519082018190526000906020906060840190828701845b8281101561252957815173ffffffffffffffffffffffffffffffffffffffff16845292840192908401906001016124f7565b50505083810382850152610563818661249f565b6000602080838503121561255057600080fd5b825167ffffffffffffffff81111561256757600080fd5b8301601f8101851361257857600080fd5b805161258661217982612134565b81815260059190911b820183019083810190878311156125a557600080fd5b928401925b82841015610641578351825292840192908401906125aa565b6000826125d2576125d26123a9565b500490565b600181815b8085111561263057817fffffffffffffffffffffffffffffffffffffffffffffffffffffffffffffffff0482111561261657612616612342565b8085161561262357918102915b93841c93908002906125dc565b509250929050565b60008261264757506001610289565b8161265457506000610289565b816001811461266a576002811461267457612690565b6001915050610289565b60ff84111561268557612685612342565b50506001821b610289565b5060208310610133831016604e8410600b84101617156126b3575081810a610289565b6126bd83836125d7565b807fffffffffffffffffffffffffffffffffffffffffffffffffffffffffffffffff048211156126ef576126ef612342565b029392505050565b60006104d38383612638565b600082612712576127126123a9565b500690565b808202811582820484141761028957610289612342565b8181038181111561028957610289612342565b60006020828403121561275357600080fd5b8151600481106104d357600080fd5b73ffffffffffffffffffffffffffffffffffffffff831681526040602082015260006104d0604083018461249f565b73ffffffffffffffffffffffffffffffffffffffff8416815282602082015260606040820152600061088e606083018461249f565b805169ffffffffffffffffffff81168114610c4057600080fd5b600080600080600060a086880312156127f857600080fd5b612801866127c6565b9450602086015193506040860151925060608601519150612824608087016127c6565b90509295509295909350565b60006020828403121561284257600080fd5b815160ff811681146104d357600080fd5b60006104d360ff841683612638565b7f4e487b7100000000000000000000000000000000000000000000000000000000600052605160045260246000fdfea2646970667358221220d46193afbfa58a5357e88f52bbe5b5e176911922e41c03182eb133832a35378064736f6c63430008110033",
  "linkReferences": {},
  "deployedLinkReferences": {}
}