{
  "_format": "hh-sol-artifact-1",
  "contractName": "AllStandardOpsTest",
  "sourceName": "contracts/test/interpreter/ops/AllStandardOps/AllStandardOpsTest.sol",
  "abi": [
    {
      "inputs": [
        {
          "internalType": "address",
          "name": "interpreterIntegrity_",
          "type": "address"
        }
      ],
      "stateMutability": "nonpayable",
      "type": "constructor"
    },
    {
      "inputs": [
        {
          "internalType": "uint256",
          "name": "_size",
          "type": "uint256"
        },
        {
          "internalType": "uint256",
          "name": "_start",
          "type": "uint256"
        },
        {
          "internalType": "uint256",
          "name": "_end",
          "type": "uint256"
        }
      ],
      "name": "InvalidCodeAtRange",
      "type": "error"
    },
    {
      "inputs": [],
      "name": "WriteError",
      "type": "error"
    },
    {
      "anonymous": false,
      "inputs": [
        {
          "indexed": false,
          "internalType": "address",
          "name": "sender",
          "type": "address"
        },
        {
          "indexed": false,
          "internalType": "uint256",
          "name": "id",
          "type": "uint256"
        },
        {
          "components": [
            {
              "internalType": "bytes[]",
              "name": "sources",
              "type": "bytes[]"
            },
            {
              "internalType": "uint256[]",
              "name": "constants",
              "type": "uint256[]"
            }
          ],
          "indexed": false,
          "internalType": "struct StateConfig",
          "name": "config",
          "type": "tuple"
        }
      ],
      "name": "SaveInterpreterState",
      "type": "event"
    },
    {
      "inputs": [
        {
          "components": [
            {
              "internalType": "bytes[]",
              "name": "sources",
              "type": "bytes[]"
            },
            {
              "internalType": "uint256[]",
              "name": "constants",
              "type": "uint256[]"
            }
          ],
          "internalType": "struct StateConfig",
          "name": "stateConfig_",
          "type": "tuple"
        },
        {
          "internalType": "uint256[]",
          "name": "minStackOutputs_",
          "type": "uint256[]"
        }
      ],
      "name": "initialize",
      "outputs": [],
      "stateMutability": "nonpayable",
      "type": "function"
    },
    {
      "inputs": [
        {
          "internalType": "SourceIndex",
          "name": "sourceIndex_",
          "type": "uint256"
        }
      ],
      "name": "run",
      "outputs": [],
      "stateMutability": "nonpayable",
      "type": "function"
    },
    {
      "inputs": [],
      "name": "run",
      "outputs": [],
      "stateMutability": "nonpayable",
      "type": "function"
    },
    {
      "inputs": [
        {
          "internalType": "uint256[][]",
          "name": "context_",
          "type": "uint256[][]"
        },
        {
          "internalType": "SourceIndex",
          "name": "sourceIndex_",
          "type": "uint256"
        }
      ],
      "name": "runContext",
      "outputs": [],
      "stateMutability": "nonpayable",
      "type": "function"
    },
    {
      "inputs": [
        {
          "internalType": "uint256[][]",
          "name": "context_",
          "type": "uint256[][]"
        }
      ],
      "name": "runContext",
      "outputs": [],
      "stateMutability": "nonpayable",
      "type": "function"
    },
    {
      "inputs": [],
      "name": "stack",
      "outputs": [
        {
          "internalType": "uint256[]",
          "name": "",
          "type": "uint256[]"
        }
      ],
      "stateMutability": "view",
      "type": "function"
    },
    {
      "inputs": [],
      "name": "stackTop",
      "outputs": [
        {
          "internalType": "uint256",
          "name": "",
          "type": "uint256"
        }
      ],
      "stateMutability": "view",
      "type": "function"
    }
  ],
  "bytecode": "0x60c06040523480156200001157600080fd5b506040516200421e3803806200421e83398101604081905262000034916200004a565b306080526001600160a01b031660a0526200007c565b6000602082840312156200005d57600080fd5b81516001600160a01b03811681146200007557600080fd5b9392505050565b60805160a05161417f6200009f600039600061031001526000505061417f6000f3fe608060405234801561001057600080fd5b506004361061007d5760003560e01c8063a444f5e91161005b578063a444f5e9146100c8578063b9e62b74146100db578063bcf69a50146100f1578063c04062261461010457600080fd5b80631273309114610082578063138ef151146100975780637f780e17146100b5575b600080fd5b61009561009036600461366c565b61010c565b005b61009f610124565b6040516100ac9190613713565b60405180910390f35b6100956100c33660046137a6565b61017c565b6100956100d63660046137eb565b6101fd565b6100e36102bd565b6040519081526020016100ac565b6100956100ff366004613804565b6102ef565b6100956102fc565b610120600061011a84613839565b83610309565b5050565b6060600180548060200260200160405190810160405280929190818152602001828054801561017257602002820191906000526020600020905b81548152602001906001019080831161015e575b5050505050905090565b600061018860006103d3565b6080810184905280519091506000906101a490839085906104b5565b82519091507fffffffffffffffffffffffffffffffffffffffffffffffffffffffffffffffe0016101d3565b90565b80516101e7916001916020909101906134df565b5081516101f49082610508565b60025550505050565b600061020960006103d3565b905060005a825190915060009061022390849086906104b5565b905060005a90506102746040518060400160405280600881526020017f6576616c20676173000000000000000000000000000000000000000000000000815250828561026f91906139b8565b610515565b83517fffffffffffffffffffffffffffffffffffffffffffffffffffffffffffffffe08101516102a6916001916134df565b5083516102b39083610508565b6002555050505050565b60006001806002546102cf91906139b8565b815481106102df576102df6139cb565b9060005260206000200154905090565b60008061018860006103d3565b60008061020960006103d3565b60006103367f000000000000000000000000000000000000000000000000000000000000000084846105a6565b90507ff03e0b6388e3e42230b302b8cf0dd48092a1240c0df9b50a01da9f4f6863fec933858560405161036b93929190613ab0565b60405180910390a161037c81610673565b60009485526020859052604090942080547fffffffffffffffffffffffff00000000000000000000000000000000000000001673ffffffffffffffffffffffffffffffffffffffff90951694909417909355505050565b61040c6040518060c001604052806000815260200160008152602001600081526020016000815260200160608152602001606081525090565b60008281526020819052604090205473ffffffffffffffffffffffffffffffffffffffff168061049d576040517f08c379a000000000000000000000000000000000000000000000000000000000815260206004820152600d60248201527f554e4b4e4f574e5f53544154450000000000000000000000000000000000000060448201526064015b60405180910390fd5b6104ae6104a9826106fe565b61072c565b9392505050565b60a08301516020838102909101015180516000919081015b808210156104fe57600491909101805190919061ffff601082901c811691166104f588828885565b955050506104cd565b5091949350505050565b6020828203045b92915050565b610120828260405160240161052b929190613b8a565b604080517fffffffffffffffffffffffffffffffffffffffffffffffffffffffffffffffe08184030181529190526020810180517bffffffffffffffffffffffffffffffffffffffffffffffffffffffff167fb60e72cc00000000000000000000000000000000000000000000000000000000179052610985565b81516020830151516040517fb697f55b00000000000000000000000000000000000000000000000000000000815260609260009273ffffffffffffffffffffffffffffffffffffffff88169263b697f55b926106089290918890600401613bac565b6040805180830381865afa158015610624573d6000803e3d6000fd5b505050506040513d601f19601f820116820180604052508101906106489190613be1565b91505061066a8161066261065d6101d06109a6565b6109b6565b869190610a46565b95945050505050565b60008061069e8360405160200161068a9190613c05565b604051602081830303815290604052610b5b565b90508051602082016000f0915073ffffffffffffffffffffffffffffffffffffffff82166106f8576040517f08d4abb600000000000000000000000000000000000000000000000000000000815260040160405180910390fd5b50919050565b606061050f8260017fffffffffffffffffffffffffffffffffffffffffffffffffffffffffffffffff610b87565b6107656040518060c001604052806000815260200160008152602001600081526020016000815260200160608152602001606081525090565b61079e6040518060c001604052806000815260200160008152602001600081526020016000815260200160608152602001606081525090565b60408051600080825260208201909252906107c9565b60608152602001906001900390816107b45790505b50608082015260006107dc845b60200190565b9050600061081261080d837fffffffffffffffffffffffffffffffffffffffffffffffffffffffffffffffe0015190565b830190565b90506020820191506000610846837fffffffffffffffffffffffffffffffffffffffffffffffffffffffffffffffe0015190565b905060008167ffffffffffffffff81111561086357610863613536565b60405190808252806020026020018201604052801561088c578160200160208202803683370190505b506020808201875285810190870181905294519091506108ae90602002850190565b9350600084815b858210156108da576108d06107d66108cb845190565b840190565b91506001016108b5565b8067ffffffffffffffff8111156108f3576108f3613536565b60405190808252806020026020018201604052801561092657816020015b60608152602001906001900390816109115790505b5060a08901525b8587101561097757868860a00151848151811061094c5761094c6139cb565b602002602001018190525061096a6107d6610965895190565b890190565b965060019092019161092d565b509598975050505050505050565b80516a636f6e736f6c652e6c6f67602083016000808483855afa5050505050565b60606109b181610c73565b905090565b60606000825160020267ffffffffffffffff8111156109d7576109d7613536565b6040519080825280601f01601f191660200182016040528015610a01576020820181803683370190505b50905061ffff801990506020840160208551028101600284015b81831015610a3b5780518351908516178152602090920191600201610a1b565b509295945050505050565b602083810151516060910260400160005b855151811015610a9557610a8986600001518281518110610a7a57610a7a6139cb565b60200260200101515160200190565b90910190600101610a57565b5060008167ffffffffffffffff811115610ab157610ab1613536565b6040519080825280601f01601f191660200182016040528015610adb576020820181803683370190505b5090506000610ae9826107d6565b86815260208881015191019150610b01908290610ed7565b9050606060005b885151811015610b4e578851805182908110610b2657610b266139cb565b60200260200101519150610b3a8288610ef7565b610b448383610f56565b9250600101610b08565b5091979650505050505050565b6060815182604051602001610b71929190613c2b565b6040516020818303038152906040529050919050565b6060833b6000819003610baa5750506040805160208101909152600081526104ae565b80841115610bc85750506040805160208101909152600081526104ae565b83831015610c13576040517f2c4a89fa000000000000000000000000000000000000000000000000000000008152600481018290526024810185905260448101849052606401610494565b8383038482036000828210610c285782610c2a565b815b60408051603f83017fffffffffffffffffffffffffffffffffffffffffffffffffffffffffffffffe0168101909152818152955090508087602087018a3c505050509392505050565b60606000604051806107a00160405280610c8b603c90565b67ffffffffffffffff168152610f766020820152610f846040820152610fda606082015261102c60808201526110aa60a08201526110cc60c082015261116560e082015261122f61010082015261126461012082015261128261014082015261130a61016082015261131961018082018190526113276101a08301526113356101c08301526113436101e083015261020082015261135161022082015261135f61024082015261136d61026082015261137c61028082015261138b6102a08201526113996102c08201526113a76102e08201526113b56103008201526113c36103208201526114466103408201526114556103608201526114646103808201526114736103a08201526114826103c08201526114916103e08201526114d56104008201526114e76104208201526114f56104408201526115276104608201526115356104808201526115436104a08201526115516104c08201526115606104e082015261156f61050082015261157e61052082015261158d61054082015261159c6105608201526115ab6105808201526115ba6105a08201526115c96105c08201526115d86105e08201526115e76106008201526115f661062082015261160461064082015261161261066082015261162061068082015261162e6106a082015261163c6106c082015261164a6106e08201526116586107008201526116676107208201526116766107408201526116846107608201526116fb6107809091015290506000610eb98261170a565b9050610ec5818561177c565b805b949350505050565b815260200190565b60006104ae82610ef1845186610ecf90919063ffffffff16565b906117b2565b815161ffff907fffffffffffffffffffffffffffffffffffffffffffffffffffffffffffff000090840160028481019086015b82811015610f4d5780518581166002028301518616908516178152600401610f2a565b50505050505050565b60006104ae82610f70845186610ecf90919063ffffffff16565b906117ca565b6000610ec7826117ec6117f8565b8251600090600f84811691600486901c90911690600886901c9060208402860388526000610fb38984896104b5565b9050610fc66020850282038a5186611864565b508751975250602002909401949350505050565b6000610ec78460800151600885901c81518110610ff957610ff96139cb565b602002602001015160ff851681518110611015576110156139cb565b602002602001015183610ecf90919063ffffffff16565b600080600061105d847fffffffffffffffffffffffffffffffffffffffffffffffffffffffffffffffe00180519091565b915091506104fe8660800151868151811061107a5761107a6139cb565b60200260200101518281518110611093576110936139cb565b60200260200101518361188c90919063ffffffff16565b6000808360038111156110bf576110bf613cc2565b90506104fe858483611890565b600060ff831660018101600481901b85178361110a867fffffffffffffffffffffffffffffffffffffffffffffffffffffffffffffffe00180519091565b90965090505b801561115957611121888388610f84565b955061114f867fffffffffffffffffffffffffffffffffffffffffffffffffffffffffffffffe00180519091565b9096509050611110565b50939695505050505050565b6000600f83811690600485901c811690600886901c16600c86901c808201855b8960800151858151811061119b5761119b6139cb565b6020026020010151518110156109775760005b8481101561120b576112018b60800151828801815181106111d1576111d16139cb565b602002602001015183815181106111ea576111ea6139cb565b60200260200101518a610ecf90919063ffffffff16565b98506001016111ae565b50600886901b600484901b1782176112248b828b610f84565b985050600101611185565b6000600c83901c610fff8416825b82811015610a3b57611250878387610f84565b94508061125c81613cf1565b91505061123d565b60018281166020908102949094015192901c83029091015181520190565b60008060006112b3847fffffffffffffffffffffffffffffffffffffffffffffffffffffffffffffffe00180519091565b90945090506112e4847fffffffffffffffffffffffffffffffffffffffffffffffffffffffffffffffe00180519091565b604088015191955092506112f99083836119c4565b604087015250829150509392505050565b6000610ec782611a1d85611a6c565b6000610ec782611ab96117f8565b6000610ec782611b4e611bbf565b6000610ec782611bfe611c9a565b6000610ec782611d2c6117f8565b6000610ec782611d826117f8565b6000610ec782611e31611c9a565b6000610ec782611e8e85611f48565b6000610ec78261202785612034565b438152600060208201610ec7565b338152600060208201610ec7565b308152600060208201610ec7565b428152600060208201610ec7565b60008060006113f4847fffffffffffffffffffffffffffffffffffffffffffffffffffffffffffffffe00180519091565b909250905063ffffffff61143b83828416602085901c8416604086901c8516606087901c8616608088901c871660a089901c881660c08a901c891660e08b901c61206a8b16565b979650505050505050565b6000610ec7826120a0856120ac565b6000610ec7826120e2856120f8565b6000610ec78261215a856120f8565b6000610ec782612170856120ac565b6000610ec78261217c856120ac565b6000602083028203805b838110156114cb5760006114ad825190565b905080156114c25782525060200190506104ae565b5060200161149b565b506020810161066a565b6000610ec78261218860018601611f48565b6000610ec7826121986117f8565b6000602083028203805b838110156114cb57805160000361151f57506000815260200190506104ae565b6020016114ff565b6000610ec7826121a26117f8565b6000610ec7826121ac611bbf565b6000610ec7826121b56117f8565b6000610ec7826121bf856121fa565b6000610ec78261223e856121fa565b6000610ec78261226f856121fa565b6000610ec782612285856121fa565b6000610ec782612291856121fa565b6000610ec78261229d856121fa565b6000610ec7826122a9856121fa565b6000610ec7826122bf856121fa565b6000610ec7826122ce856121fa565b6000610ec7826122da856121fa565b6000610ec7826122e6856121fa565b6000610ec7826122f26123b4565b6000610ec78261246d611bbf565b6000610ec7826124ba611bbf565b6000610ec782612547611bbf565b6000610ec7826125c9611bbf565b6000610ec782612616611bbf565b6000610ec782612663611c9a565b6000610ec7826126c285612719565b6000610ec7826127a08561283a565b6000610ec7826129106117f8565b600060ff8316600884901c600316600a85901c83806116d08786602081029091037fffffffffffffffffffffffffffffffffffffffffffffffffffffffffffffffe00180519181529091565b915091506116ee6116e38486858561296f565b825b90815260200190565b9998505050505050505050565b6000610ec782612abe856120f8565b80518190603c14611777576040517f08c379a000000000000000000000000000000000000000000000000000000000815260206004820152601260248201527f4241445f44594e414d49435f4c454e47544800000000000000000000000000006044820152606401610494565b919050565b60405182518251602080830286010183111561179757600080fd5b6020810283016040520183526117ad8282612ad6565b505050565b60006117be8284612ad6565b815160200283016104ae565b60006117e38383516117dc6107d68690565b9190612aea565b815183016104ae565b60006104ae8383612b66565b7fffffffffffffffffffffffffffffffffffffffffffffffffffffffffffffffc0820180517fffffffffffffffffffffffffffffffffffffffffffffffffffffffffffffffe090930180519093600092909190611859838363ffffffff8816565b905250929392505050565b8060200283015b8084101561188657835183526020938401939092019161186b565b50505050565b9052565b600060038260038111156118a6576118a6613cc2565b036118f95760005b8460a00151518110156118f3576118e18560a0015182815181106118d4576118d46139cb565b6020026020010151612d41565b806118eb81613cf1565b9150506118ae565b506119bc565b600082600381111561190d5761190d613cc2565b0361191c576118f38484612dd0565b600182600381111561193057611930613cc2565b036119725761196d6119686101d086602001517fffffffffffffffffffffffffffffffffffffffffffffffffffffffffffffffe00190565b612de0565b6119bc565b60005b8460800151518110156119ba576119a88560800151828151811061199b5761199b6139cb565b6020026020010151612de0565b806119b281613cf1565b915050611975565b505b509092915050565b6000806119d18585612e9e565b905061ffff81156119e757836020830152611a13565b60405191506060820160405284825283602083015280861660408301528160028760101c0160101b1795505b5093949350505050565b600081604051602001611a309190613d29565b604080517fffffffffffffffffffffffffffffffffffffffffffffffffffffffffffffffe0818403018152919052805160209091012092915050565b7fffffffffffffffffffffffffffffffffffffffffffffffffffffffffffffffe06020820284030180518282526000916000611aab828763ffffffff16565b905061143b816116e5858582565b6040517f70a0823100000000000000000000000000000000000000000000000000000000815273ffffffffffffffffffffffffffffffffffffffff8281166004830152600091908416906370a08231906024015b602060405180830381865afa158015611b2a573d6000803e3d6000fd5b505050506040513d601f19601f820116820180604052508101906104ae9190613d5f565b60008173ffffffffffffffffffffffffffffffffffffffff166318160ddd6040518163ffffffff1660e01b8152600401602060405180830381865afa158015611b9b573d6000803e3d6000fd5b505050506040513d601f19601f8201168201806040525081019061050f9190613d5f565b7fffffffffffffffffffffffffffffffffffffffffffffffffffffffffffffffe082018051600091611bf48263ffffffff8616565b9052509192915050565b6040517f4ee2cd7e00000000000000000000000000000000000000000000000000000000815273ffffffffffffffffffffffffffffffffffffffff83811660048301526024820183905260009190851690634ee2cd7e906044015b602060405180830381865afa158015611c76573d6000803e3d6000fd5b505050506040513d601f19601f82011682018060405250810190610ec79190613d5f565b7fffffffffffffffffffffffffffffffffffffffffffffffffffffffffffffffa0820180517fffffffffffffffffffffffffffffffffffffffffffffffffffffffffffffffc0840180517fffffffffffffffffffffffffffffffffffffffffffffffffffffffffffffffe0909501519094600093909190611d2084848463ffffffff8a16565b90525093949350505050565b6040517f981b24d00000000000000000000000000000000000000000000000000000000081526004810182905260009073ffffffffffffffffffffffffffffffffffffffff84169063981b24d090602401611b0d565b6040517f6352211e0000000000000000000000000000000000000000000000000000000081526004810182905260009073ffffffffffffffffffffffffffffffffffffffff841690636352211e90602401602060405180830381865afa158015611df0573d6000803e3d6000fd5b505050506040513d601f19601f82011682018060405250810190611e149190613d78565b73ffffffffffffffffffffffffffffffffffffffff169392505050565b6040517efdd58e00000000000000000000000000000000000000000000000000000000815273ffffffffffffffffffffffffffffffffffffffff8381166004830152602482018390526000919085169062fdd58e90604401611c59565b6040517f4e1273f400000000000000000000000000000000000000000000000000000000815260609073ffffffffffffffffffffffffffffffffffffffff851690634e1273f490611ee59086908690600401613dae565b600060405180830381865afa158015611f02573d6000803e3d6000fd5b505050506040513d6000823e601f3d9081017fffffffffffffffffffffffffffffffffffffffffffffffffffffffffffffffe0168201604052610ec79190810190613e11565b600060208202840381611f5b8285612ebe565b7fffffffffffffffffffffffffffffffffffffffffffffffffffffffffffffffe06020860284030180518682529192506000611f9c8383868b63ffffffff16565b905086815114612008576040517f08c379a000000000000000000000000000000000000000000000000000000000815260206004820152601160248201527f4241445f524553554c545f4c454e4754480000000000000000000000000000006044820152606401610494565b816120138282612ad6565b6020880281019a9950505050505050505050565b8061203157600080fd5b50565b6020810283038060005b858210156120615750805160209091019061205c8163ffffffff8716565b61203e565b50509392505050565b968852602088019590955260408701939093526060860191909152608085015260a084015260c083015260e08201526101000190565b60006104ae8284612f16565b7fffffffffffffffffffffffffffffffffffffffffffffffffffffffffffffffe083018051600091611859848363ffffffff8816565b6000610ec7826120f28587612f16565b90612f96565b7fffffffffffffffffffffffffffffffffffffffffffffffffffffffffffffffc0830180517fffffffffffffffffffffffffffffffffffffffffffffffffffffffffffffffe090940180519094600092909190611d2085848463ffffffff8a16565b6000610ec78261216a8587612f16565b90612fab565b60006104ae8284612fc0565b60006104ae828461300f565b6060600084116119bc5781610ec7565b60008183146104ae565b60008183116104ae565b6000811561050f565b60008183106104ae565b60008282018381106121d15780610ec7565b7fffffffffffffffffffffffffffffffffffffffffffffffffffffffffffffffff949350505050565b60208181028403805191810191829060005b8783101561223257508151612225828263ffffffff8a16565b915060208301925061220c565b50909152509392505050565b6000826000036122505750600061050f565b8282028284828161226357612263613b5b565b04036121d15780610ec7565b600081831161227f5760006104ae565b50900390565b60006104ae8284613e97565b60006104ae8284613eaa565b60006104ae8284613fde565b60008183116122b857816104ae565b5090919050565b60008183106122b857816104ae565b60006104ae8284613fea565b60006104ae8284613ffe565b60006104ae82846139b8565b6040517fd97b2e4800000000000000000000000000000000000000000000000000000000815273ffffffffffffffffffffffffffffffffffffffff84811660048301528381166024830152604482018390526000919086169063d97b2e4890606401602060405180830381865afa158015612371573d6000803e3d6000fd5b505050506040513d601f19601f820116820180604052508101906123959190613d5f565b73ffffffffffffffffffffffffffffffffffffffff1695945050505050565b7fffffffffffffffffffffffffffffffffffffffffffffffffffffffffffffff80820180517fffffffffffffffffffffffffffffffffffffffffffffffffffffffffffffffa0840180517fffffffffffffffffffffffffffffffffffffffffffffffffffffffffffffffc08601517fffffffffffffffffffffffffffffffffffffffffffffffffffffffffffffffe0909601519195600094919290916124608585858563ffffffff8c16565b9052509495945050505050565b60008173ffffffffffffffffffffffffffffffffffffffff1663ec14b06e6040518163ffffffff1660e01b8152600401602060405180830381865afa158015611b9b573d6000803e3d6000fd5b60008173ffffffffffffffffffffffffffffffffffffffff1663cd3293de6040518163ffffffff1660e01b8152600401602060405180830381865afa158015612507573d6000803e3d6000fd5b505050506040513d601f19601f8201168201806040525081019061252b9190613d78565b73ffffffffffffffffffffffffffffffffffffffff1692915050565b60008173ffffffffffffffffffffffffffffffffffffffff1663f9020e336040518163ffffffff1660e01b8152600401602060405180830381865afa158015612594573d6000803e3d6000fd5b505050506040513d601f19601f820116820180604052508101906125b89190614015565b600381111561050f5761050f613cc2565b60008173ffffffffffffffffffffffffffffffffffffffff1663fc0c546a6040518163ffffffff1660e01b8152600401602060405180830381865afa158015612507573d6000803e3d6000fd5b60008173ffffffffffffffffffffffffffffffffffffffff166347e4bbb96040518163ffffffff1660e01b8152600401602060405180830381865afa158015611b9b573d6000803e3d6000fd5b6040517fdb8554fc00000000000000000000000000000000000000000000000000000000815273ffffffffffffffffffffffffffffffffffffffff8381166004830152602482018390526000919085169063db8554fc90604401611c59565b6040517f88d6860400000000000000000000000000000000000000000000000000000000815260009073ffffffffffffffffffffffffffffffffffffffff8516906388d6860490611c599086908690600401614036565b6020810283037fffffffffffffffffffffffffffffffffffffffffffffffffffffffffffffffe001805182825260009180925060008061277b857fffffffffffffffffffffffffffffffffffffffffffffffffffffffffffffffe00180519091565b915091506127956127918286868b63ffffffff16565b8352565b505050509392505050565b6040517fcaa0eb3b00000000000000000000000000000000000000000000000000000000815260009073ffffffffffffffffffffffffffffffffffffffff86169063caa0eb3b906127f990879087908790600401614065565b602060405180830381865afa158015612816573d6000803e3d6000fd5b505050506040513d601f19601f8201168201806040525081019061066a9190613d5f565b6020810283037fffffffffffffffffffffffffffffffffffffffffffffffffffffffffffffffe00180518282526000918280612898837fffffffffffffffffffffffffffffffffffffffffffffffffffffffffffffffe00180519091565b9150915060006128c8837fffffffffffffffffffffffffffffffffffffffffffffffffffffffffffffffe0015190565b90506129036128dd828488888d63ffffffff16565b7fffffffffffffffffffffffffffffffffffffffffffffffffffffffffffffffe0850152565b5090979650505050505050565b60008060015b6008811161296757600061292a868361306f565b90506000612938868461306f565b90506000612946838361226f565b905061295685600186038361311f565b945050600190920191506129169050565b509392505050565b805160009081908190819060015b60088111612ab0576000925082896129b657507fffffffffffffffffffffffffffffffffffffffffffffffffffffffffffffffff6129ba565b5060005b60005b83811015612a6e576129e88982815181106129da576129da6139cb565b60200260200101518461306f565b9550898611612a39578a612a0757612a0086836122bf565b9150612a30565b60018b03612a1957612a0086836131a9565b60028b148015612a27575084155b15612a30578591505b60019450612a66565b8b612a66577fffffffffffffffffffffffffffffffffffffffffffffffffffffffffffffffff9150612a6e565b6001016129bd565b5083612a9757507fffffffffffffffffffffffffffffffffffffffffffffffffffffffffffffffff5b612aa586600184038361311f565b95505060010161297d565b509298975050505050505050565b6000610ec78385600f16600487901c600f16856131b9565b60006020830190506117ad81838551611864565b5b60208110612b285782518252602092830192909101907fffffffffffffffffffffffffffffffffffffffffffffffffffffffffffffffe001612aeb565b80156117ad577fffffffffffffffffffffffffffffffffffffffffffffffffffffffffffffffff600882021c80835116811985511617835250505050565b60008060008473ffffffffffffffffffffffffffffffffffffffff1663feaf968c6040518163ffffffff1660e01b815260040160a060405180830381865afa158015612bb6573d6000803e3d6000fd5b505050506040513d601f19601f82011682018060405250810190612bda91906140b4565b5093505092505060008213612c4b576040517f08c379a000000000000000000000000000000000000000000000000000000000815260206004820152600e60248201527f4d494e5f424153455f50524943450000000000000000000000000000000000006044820152606401610494565b83612c5682426139b8565b10612cbd576040517f08c379a000000000000000000000000000000000000000000000000000000000815260206004820152600b60248201527f5354414c455f50524943450000000000000000000000000000000000000000006044820152606401610494565b61066a8573ffffffffffffffffffffffffffffffffffffffff1663313ce5676040518163ffffffff1660e01b8152600401602060405180830381865afa158015612d0b573d6000803e3d6000fd5b505050506040513d601f19601f82011682018060405250810190612d2f9190614104565b60ff16612d3b8461325f565b90612f16565b61203181604051602401612d559190614127565b604080517fffffffffffffffffffffffffffffffffffffffffffffffffffffffffffffffe08184030181529190526020810180517bffffffffffffffffffffffffffffffffffffffffffffffffffffffff167f0be77f5600000000000000000000000000000000000000000000000000000000179052610985565b60006104ae8360000151836132cf565b612e1e6040518060400160405280600381526020017f7e7e7e00000000000000000000000000000000000000000000000000000000008152506132f0565b60005b8151811015612e5f57612e4d81838381518110612e4057612e406139cb565b602002602001015161337f565b80612e5781613cf1565b915050612e21565b506120316040518060400160405280600381526020017f7e7e7e00000000000000000000000000000000000000000000000000000000008152506132f0565b600061ffff8381165b8015610ec75780518414610ec75760400151612ea7565b606060008267ffffffffffffffff811115612edb57612edb613536565b604051908082528060200260200182016040528015612f04578160200160208202803683370190505b50905060208101612967858286611864565b60008082601203612f2a578391505061050f565b8260121115612f5657506012829003612f4e612f4782600a613fde565b859061223e565b91505061050f565b507fffffffffffffffffffffffffffffffffffffffffffffffffffffffffffffffee8201612f8581600a613fde565b612f4e9085613eaa565b5092915050565b60006104ae83670de0b6b3a764000084613412565b60006104ae8383670de0b6b3a7640000613412565b60008160000b600003612fd457508161050f565b60008260000b1315612ffc57612ff5612fee83600a61413a565b849061223e565b905061050f565b60ff600083900316612f8581600a613fde565b60008060128303613023578391505061050f565b826012111561303d57506012829003612f8581600a613fde565b507fffffffffffffffffffffffffffffffffffffffffffffffffffffffffffffffee8201612f4e612f4782600a613fde565b60008160088111156130dd576040517f08c379a000000000000000000000000000000000000000000000000000000000815260206004820152600860248201527f4d41585f544945520000000000000000000000000000000000000000000000006044820152606401610494565b826000036130ee5760009150612f8f565b50507fffffffffffffffffffffffffffffffffffffffffffffffffffffffffffffffff016020021c63ffffffff1690565b600082600881111561318d576040517f08c379a000000000000000000000000000000000000000000000000000000000815260206004820152600860248201527f4d41585f544945520000000000000000000000000000000000000000000000006044820152606401610494565b505060209190910290811b63ffffffff90911b19919091161790565b6000818310156122b857816104ae565b6000826008811115613227576040517f08c379a000000000000000000000000000000000000000000000000000000000815260206004820152600860248201527f4d41585f544945520000000000000000000000000000000000000000000000006044820152606401610494565b6000855b858110156132535763ffffffff6020820290811b199890981685891b1797915060010161322b565b50959695505050505050565b6000808212156132cb576040517f08c379a000000000000000000000000000000000000000000000000000000000815260206004820181905260248201527f53616665436173743a2076616c7565206d75737420626520706f7369746976656044820152606401610494565b5090565b6000806132dc8484610508565b90506119bc61196860208302850383612ebe565b612031816040516024016133049190614127565b604080517fffffffffffffffffffffffffffffffffffffffffffffffffffffffffffffffe08184030181529190526020810180517bffffffffffffffffffffffffffffffffffffffffffffffffffffffff167f41304fac00000000000000000000000000000000000000000000000000000000179052610985565b604051602481018390526044810182905261012090606401604080517fffffffffffffffffffffffffffffffffffffffffffffffffffffffffffffffe08184030181529190526020810180517bffffffffffffffffffffffffffffffffffffffffffffffffffffffff167ff666715a00000000000000000000000000000000000000000000000000000000179052610985565b600080807fffffffffffffffffffffffffffffffffffffffffffffffffffffffffffffffff8587098587029250828110838203039150508060000361346a5783828161346057613460613b5b565b04925050506104ae565b80841161347657600080fd5b60008486880960026001871981018816978890046003810283188082028403028082028403028082028403028082028403028082028403029081029092039091026000889003889004909101858311909403939093029303949094049190911702949350505050565b82805482825590600052602060002090810192821561351a579160200282015b8281111561351a5782518255916020019190600101906134ff565b506132cb9291505b808211156132cb5760008155600101613522565b7f4e487b7100000000000000000000000000000000000000000000000000000000600052604160045260246000fd5b6040805190810167ffffffffffffffff8111828210171561358857613588613536565b60405290565b604051601f82017fffffffffffffffffffffffffffffffffffffffffffffffffffffffffffffffe016810167ffffffffffffffff811182821017156135d5576135d5613536565b604052919050565b600067ffffffffffffffff8211156135f7576135f7613536565b5060051b60200190565b600082601f83011261361257600080fd5b81356020613627613622836135dd565b61358e565b82815260059290921b8401810191818101908684111561364657600080fd5b8286015b84811015613661578035835291830191830161364a565b509695505050505050565b6000806040838503121561367f57600080fd5b823567ffffffffffffffff8082111561369757600080fd5b90840190604082870312156136ab57600080fd5b909250602084013590808211156136c157600080fd5b506136ce85828601613601565b9150509250929050565b600081518084526020808501945080840160005b83811015613708578151875295820195908201906001016136ec565b509495945050505050565b6020815260006104ae60208301846136d8565b600082601f83011261373757600080fd5b81356020613747613622836135dd565b82815260059290921b8401810191818101908684111561376657600080fd5b8286015b8481101561366157803567ffffffffffffffff81111561378a5760008081fd5b6137988986838b0101613601565b84525091830191830161376a565b600080604083850312156137b957600080fd5b823567ffffffffffffffff8111156137d057600080fd5b6137dc85828601613726565b95602094909401359450505050565b6000602082840312156137fd57600080fd5b5035919050565b60006020828403121561381657600080fd5b813567ffffffffffffffff81111561382d57600080fd5b610ec784828501613726565b6000604080833603121561384c57600080fd5b613854613565565b833567ffffffffffffffff8082111561386c57600080fd5b90850190601f368184011261388057600080fd5b82356020613890613622836135dd565b82815260059290921b850181019181810190368411156138af57600080fd5b8287015b84811015613956578035878111156138cb5760008081fd5b880136603f8201126138dd5760008081fd5b84810135888111156138f1576138f1613536565b613920867fffffffffffffffffffffffffffffffffffffffffffffffffffffffffffffffe08a8401160161358e565b818152368d8385010111156139355760008081fd5b818d84018883013760009181018701919091528452509183019183016138b3565b508752508881013596508387111561396d57600080fd5b61397936888b01613601565b9086015250929695505050505050565b7f4e487b7100000000000000000000000000000000000000000000000000000000600052601160045260246000fd5b8181038181111561050f5761050f613989565b7f4e487b7100000000000000000000000000000000000000000000000000000000600052603260045260246000fd5b60005b83811015613a155781810151838201526020016139fd565b50506000910152565b60008151808452613a368160208601602086016139fa565b601f017fffffffffffffffffffffffffffffffffffffffffffffffffffffffffffffffe0169290920160200192915050565b600081518084526020808501808196508360051b8101915082860160005b85811015610b4e578284038952613a9e848351613a1e565b98850198935090840190600101613a86565b73ffffffffffffffffffffffffffffffffffffffff8416815260006020848184015260606040840152835160406060850152613aef60a0850182613a68565b858301518582037fffffffffffffffffffffffffffffffffffffffffffffffffffffffffffffffa0016080870152805180835290840192506000918401905b80831015613b4e5783518252928401926001929092019190840190613b2e565b5098975050505050505050565b7f4e487b7100000000000000000000000000000000000000000000000000000000600052601260045260246000fd5b604081526000613b9d6040830185613a1e565b90508260208301529392505050565b606081526000613bbf6060830186613a68565b8460208401528281036040840152613bd781856136d8565b9695505050505050565b60008060408385031215613bf457600080fd5b505080516020909101519092909150565b6000815260008251613c1e8160018501602087016139fa565b9190910160010192915050565b7f630000000000000000000000000000000000000000000000000000000000000081527fffffffff000000000000000000000000000000000000000000000000000000008360e01b1660018201527f80600e6000396000f30000000000000000000000000000000000000000000000600582015260008251613cb481600e8501602087016139fa565b91909101600e019392505050565b7f4e487b7100000000000000000000000000000000000000000000000000000000600052602160045260246000fd5b60007fffffffffffffffffffffffffffffffffffffffffffffffffffffffffffffffff8203613d2257613d22613989565b5060010190565b815160009082906020808601845b83811015613d5357815185529382019390820190600101613d37565b50929695505050505050565b600060208284031215613d7157600080fd5b5051919050565b600060208284031215613d8a57600080fd5b815173ffffffffffffffffffffffffffffffffffffffff811681146104ae57600080fd5b604080825283519082018190526000906020906060840190828701845b82811015613dfd57815173ffffffffffffffffffffffffffffffffffffffff1684529284019290840190600101613dcb565b50505083810382850152613bd781866136d8565b60006020808385031215613e2457600080fd5b825167ffffffffffffffff811115613e3b57600080fd5b8301601f81018513613e4c57600080fd5b8051613e5a613622826135dd565b81815260059190911b82018301908381019087831115613e7957600080fd5b928401925b8284101561143b57835182529284019290840190613e7e565b8082018082111561050f5761050f613989565b600082613eb957613eb9613b5b565b500490565b600181815b80851115613f1757817fffffffffffffffffffffffffffffffffffffffffffffffffffffffffffffffff04821115613efd57613efd613989565b80851615613f0a57918102915b93841c9390800290613ec3565b509250929050565b600082613f2e5750600161050f565b81613f3b5750600061050f565b8160018114613f515760028114613f5b57613f77565b600191505061050f565b60ff841115613f6c57613f6c613989565b50506001821b61050f565b5060208310610133831016604e8410600b8410161715613f9a575081810a61050f565b613fa48383613ebe565b807fffffffffffffffffffffffffffffffffffffffffffffffffffffffffffffffff04821115613fd657613fd6613989565b029392505050565b60006104ae8383613f1f565b600082613ff957613ff9613b5b565b500690565b808202811582820484141761050f5761050f613989565b60006020828403121561402757600080fd5b8151600481106104ae57600080fd5b73ffffffffffffffffffffffffffffffffffffffff83168152604060208201526000610ec760408301846136d8565b73ffffffffffffffffffffffffffffffffffffffff8416815282602082015260606040820152600061066a60608301846136d8565b805169ffffffffffffffffffff8116811461177757600080fd5b600080600080600060a086880312156140cc57600080fd5b6140d58661409a565b94506020860151935060408601519250606086015191506140f86080870161409a565b90509295509295909350565b60006020828403121561411657600080fd5b815160ff811681146104ae57600080fd5b6020815260006104ae6020830184613a1e565b60006104ae60ff841683613f1f56fea2646970667358221220e60340e2c6d0a5a35c652d8395c3094b6f3f1b8a065908fa666b1bfd81add89c64736f6c63430008110033",
  "linkReferences": {},
  "deployedLinkReferences": {}
}