{
  "_format": "hh-sol-artifact-1",
  "contractName": "ReserveTokenDecimals",
  "sourceName": "contracts/test/testToken/ReserveTokenDecimals.sol",
  "abi": [
    {
      "inputs": [
        {
          "internalType": "uint256",
          "name": "decimals_",
          "type": "uint256"
        }
      ],
      "stateMutability": "nonpayable",
      "type": "constructor"
    },
    {
      "anonymous": false,
      "inputs": [
        {
          "indexed": true,
          "internalType": "address",
          "name": "owner",
          "type": "address"
        },
        {
          "indexed": true,
          "internalType": "address",
          "name": "spender",
          "type": "address"
        },
        {
          "indexed": false,
          "internalType": "uint256",
          "name": "value",
          "type": "uint256"
        }
      ],
      "name": "Approval",
      "type": "event"
    },
    {
      "anonymous": false,
      "inputs": [
        {
          "indexed": false,
          "internalType": "uint8",
          "name": "version",
          "type": "uint8"
        }
      ],
      "name": "Initialized",
      "type": "event"
    },
    {
      "anonymous": false,
      "inputs": [
        {
          "indexed": true,
          "internalType": "address",
          "name": "from",
          "type": "address"
        },
        {
          "indexed": true,
          "internalType": "address",
          "name": "to",
          "type": "address"
        },
        {
          "indexed": false,
          "internalType": "uint256",
          "name": "value",
          "type": "uint256"
        }
      ],
      "name": "Transfer",
      "type": "event"
    },
    {
      "inputs": [],
      "name": "DECIMALS",
      "outputs": [
        {
          "internalType": "uint256",
          "name": "",
          "type": "uint256"
        }
      ],
      "stateMutability": "view",
      "type": "function"
    },
    {
      "inputs": [],
      "name": "TOTAL_SUPPLY",
      "outputs": [
        {
          "internalType": "uint256",
          "name": "",
          "type": "uint256"
        }
      ],
      "stateMutability": "view",
      "type": "function"
    },
    {
      "inputs": [
        {
          "internalType": "address",
          "name": "account_",
          "type": "address"
        }
      ],
      "name": "addFreezable",
      "outputs": [],
      "stateMutability": "nonpayable",
      "type": "function"
    },
    {
      "inputs": [
        {
          "internalType": "address",
          "name": "owner",
          "type": "address"
        },
        {
          "internalType": "address",
          "name": "spender",
          "type": "address"
        }
      ],
      "name": "allowance",
      "outputs": [
        {
          "internalType": "uint256",
          "name": "",
          "type": "uint256"
        }
      ],
      "stateMutability": "view",
      "type": "function"
    },
    {
      "inputs": [
        {
          "internalType": "address",
          "name": "spender",
          "type": "address"
        },
        {
          "internalType": "uint256",
          "name": "amount",
          "type": "uint256"
        }
      ],
      "name": "approve",
      "outputs": [
        {
          "internalType": "bool",
          "name": "",
          "type": "bool"
        }
      ],
      "stateMutability": "nonpayable",
      "type": "function"
    },
    {
      "inputs": [
        {
          "internalType": "address",
          "name": "account",
          "type": "address"
        }
      ],
      "name": "balanceOf",
      "outputs": [
        {
          "internalType": "uint256",
          "name": "",
          "type": "uint256"
        }
      ],
      "stateMutability": "view",
      "type": "function"
    },
    {
      "inputs": [
        {
          "internalType": "uint256",
          "name": "amount",
          "type": "uint256"
        }
      ],
      "name": "burn",
      "outputs": [],
      "stateMutability": "nonpayable",
      "type": "function"
    },
    {
      "inputs": [
        {
          "internalType": "address",
          "name": "account",
          "type": "address"
        },
        {
          "internalType": "uint256",
          "name": "amount",
          "type": "uint256"
        }
      ],
      "name": "burnFrom",
      "outputs": [],
      "stateMutability": "nonpayable",
      "type": "function"
    },
    {
      "inputs": [],
      "name": "decimals",
      "outputs": [
        {
          "internalType": "uint8",
          "name": "",
          "type": "uint8"
        }
      ],
      "stateMutability": "view",
      "type": "function"
    },
    {
      "inputs": [
        {
          "internalType": "address",
          "name": "spender",
          "type": "address"
        },
        {
          "internalType": "uint256",
          "name": "subtractedValue",
          "type": "uint256"
        }
      ],
      "name": "decreaseAllowance",
      "outputs": [
        {
          "internalType": "bool",
          "name": "",
          "type": "bool"
        }
      ],
      "stateMutability": "nonpayable",
      "type": "function"
    },
    {
      "inputs": [
        {
          "internalType": "address",
          "name": "",
          "type": "address"
        }
      ],
      "name": "freezables",
      "outputs": [
        {
          "internalType": "bool",
          "name": "",
          "type": "bool"
        }
      ],
      "stateMutability": "view",
      "type": "function"
    },
    {
      "inputs": [
        {
          "internalType": "address",
          "name": "spender",
          "type": "address"
        },
        {
          "internalType": "uint256",
          "name": "addedValue",
          "type": "uint256"
        }
      ],
      "name": "increaseAllowance",
      "outputs": [
        {
          "internalType": "bool",
          "name": "",
          "type": "bool"
        }
      ],
      "stateMutability": "nonpayable",
      "type": "function"
    },
    {
      "inputs": [],
      "name": "initialize",
      "outputs": [],
      "stateMutability": "nonpayable",
      "type": "function"
    },
    {
      "inputs": [],
      "name": "name",
      "outputs": [
        {
          "internalType": "string",
          "name": "",
          "type": "string"
        }
      ],
      "stateMutability": "view",
      "type": "function"
    },
    {
      "inputs": [],
      "name": "symbol",
      "outputs": [
        {
          "internalType": "string",
          "name": "",
          "type": "string"
        }
      ],
      "stateMutability": "view",
      "type": "function"
    },
    {
      "inputs": [],
      "name": "totalSupply",
      "outputs": [
        {
          "internalType": "uint256",
          "name": "",
          "type": "uint256"
        }
      ],
      "stateMutability": "view",
      "type": "function"
    },
    {
      "inputs": [
        {
          "internalType": "address",
          "name": "to",
          "type": "address"
        },
        {
          "internalType": "uint256",
          "name": "amount",
          "type": "uint256"
        }
      ],
      "name": "transfer",
      "outputs": [
        {
          "internalType": "bool",
          "name": "",
          "type": "bool"
        }
      ],
      "stateMutability": "nonpayable",
      "type": "function"
    },
    {
      "inputs": [
        {
          "internalType": "address",
          "name": "from",
          "type": "address"
        },
        {
          "internalType": "address",
          "name": "to",
          "type": "address"
        },
        {
          "internalType": "uint256",
          "name": "amount",
          "type": "uint256"
        }
      ],
      "name": "transferFrom",
      "outputs": [
        {
          "internalType": "bool",
          "name": "",
          "type": "bool"
        }
      ],
      "stateMutability": "nonpayable",
      "type": "function"
    }
  ],
  "bytecode": "0x60c06040523480156200001157600080fd5b50604051620018023803806200180283398101604081905262000034916200005d565b6080819052620000468160186200008d565b6200005390600a620001a6565b60a05250620001bb565b6000602082840312156200007057600080fd5b5051919050565b634e487b7160e01b600052601160045260246000fd5b80820180821115620000a357620000a362000077565b92915050565b600181815b80851115620000ea578160001904821115620000ce57620000ce62000077565b80851615620000dc57918102915b93841c9390800290620000ae565b509250929050565b6000826200010357506001620000a3565b816200011257506000620000a3565b81600181146200012b5760028114620001365762000156565b6001915050620000a3565b60ff8411156200014a576200014a62000077565b50506001821b620000a3565b5060208310610133831016604e8410600b84101617156200017b575081810a620000a3565b620001878383620000a9565b80600019048211156200019e576200019e62000077565b029392505050565b6000620001b48383620000f2565b9392505050565b60805160a051611613620001ef600039600081816102f701526106720152600081816101a601526101cf01526116136000f3fe608060405234801561001057600080fd5b50600436106101365760003560e01c80635bb9058b116100b2578063902d55a511610081578063a457c2d711610066578063a457c2d714610321578063a9059cbb14610334578063dd62ed3e1461034757600080fd5b8063902d55a5146102f257806395d89b411461031957600080fd5b80635bb9058b1461024457806370a08231146102a157806379cc6790146102d75780638129fc1c146102ea57600080fd5b80632e0f26251161010957806339509351116100ee57806339509351146101f957806342966c681461020c57806348422faa1461022157600080fd5b80632e0f2625146101a1578063313ce567146101c857600080fd5b806306fdde031461013b578063095ea7b31461015957806318160ddd1461017c57806323b872dd1461018e575b600080fd5b61014361038d565b6040516101509190611235565b60405180910390f35b61016c6101673660046112ca565b61041f565b6040519015158152602001610150565b6035545b604051908152602001610150565b61016c61019c3660046112f4565b610439565b6101807f000000000000000000000000000000000000000000000000000000000000000081565b60405160ff7f0000000000000000000000000000000000000000000000000000000000000000168152602001610150565b61016c6102073660046112ca565b61045d565b61021f61021a366004611330565b6104a9565b005b61016c61022f366004611349565b60976020526000908152604090205460ff1681565b61021f610252366004611349565b73ffffffffffffffffffffffffffffffffffffffff16600090815260976020526040902080547fffffffffffffffffffffffffffffffffffffffffffffffffffffffffffffff00166001179055565b6101806102af366004611349565b73ffffffffffffffffffffffffffffffffffffffff1660009081526033602052604090205490565b61021f6102e53660046112ca565b6104b6565b61021f6104cf565b6101807f000000000000000000000000000000000000000000000000000000000000000081565b6101436106fb565b61016c61032f3660046112ca565b61070a565b61016c6103423660046112ca565b6107db565b61018061035536600461136b565b73ffffffffffffffffffffffffffffffffffffffff918216600090815260346020908152604080832093909416825291909152205490565b60606036805461039c9061139e565b80601f01602080910402602001604051908101604052809291908181526020018280546103c89061139e565b80156104155780601f106103ea57610100808354040283529160200191610415565b820191906000526020600020905b8154815290600101906020018083116103f857829003601f168201915b5050505050905090565b60003361042d8185856107e9565b60019150505b92915050565b60003361044785828561099d565b610452858585610a74565b506001949350505050565b33600081815260346020908152604080832073ffffffffffffffffffffffffffffffffffffffff8716845290915281205490919061042d90829086906104a4908790611420565b6107e9565b6104b33382610d32565b50565b6104c182338361099d565b6104cb8282610d32565b5050565b600054610100900460ff16158080156104ef5750600054600160ff909116105b806105095750303b158015610509575060005460ff166001145b61059a576040517f08c379a000000000000000000000000000000000000000000000000000000000815260206004820152602e60248201527f496e697469616c697a61626c653a20636f6e747261637420697320616c72656160448201527f647920696e697469616c697a656400000000000000000000000000000000000060648201526084015b60405180910390fd5b600080547fffffffffffffffffffffffffffffffffffffffffffffffffffffffffffffff0016600117905580156105f857600080547fffffffffffffffffffffffffffffffffffffffffffffffffffffffffffff00ff166101001790555b61066c6040518060400160405280600b81526020017f55534420436c61737369630000000000000000000000000000000000000000008152506040518060400160405280600581526020017f5553444343000000000000000000000000000000000000000000000000000000815250610f28565b610696337f0000000000000000000000000000000000000000000000000000000000000000610fc9565b80156104b357600080547fffffffffffffffffffffffffffffffffffffffffffffffffffffffffffff00ff169055604051600181527f7f26b83ff96e1f2b6a682f133852f6798a09c465da95921460cefb38474024989060200160405180910390a150565b60606037805461039c9061139e565b33600081815260346020908152604080832073ffffffffffffffffffffffffffffffffffffffff87168452909152812054909190838110156107ce576040517f08c379a000000000000000000000000000000000000000000000000000000000815260206004820152602560248201527f45524332303a2064656372656173656420616c6c6f77616e63652062656c6f7760448201527f207a65726f0000000000000000000000000000000000000000000000000000006064820152608401610591565b61045282868684036107e9565b60003361042d818585610a74565b73ffffffffffffffffffffffffffffffffffffffff831661088b576040517f08c379a0000000000000000000000000000000000000000000000000000000008152602060048201526024808201527f45524332303a20617070726f76652066726f6d20746865207a65726f2061646460448201527f72657373000000000000000000000000000000000000000000000000000000006064820152608401610591565b73ffffffffffffffffffffffffffffffffffffffff821661092e576040517f08c379a000000000000000000000000000000000000000000000000000000000815260206004820152602260248201527f45524332303a20617070726f766520746f20746865207a65726f20616464726560448201527f73730000000000000000000000000000000000000000000000000000000000006064820152608401610591565b73ffffffffffffffffffffffffffffffffffffffff83811660008181526034602090815260408083209487168084529482529182902085905590518481527f8c5be1e5ebec7d5bd14f71427d1e84f3dd0314c0f7b2291e5b200ac8c7c3b92591015b60405180910390a3505050565b73ffffffffffffffffffffffffffffffffffffffff8381166000908152603460209081526040808320938616835292905220547fffffffffffffffffffffffffffffffffffffffffffffffffffffffffffffffff8114610a6e5781811015610a61576040517f08c379a000000000000000000000000000000000000000000000000000000000815260206004820152601d60248201527f45524332303a20696e73756666696369656e7420616c6c6f77616e63650000006044820152606401610591565b610a6e84848484036107e9565b50505050565b73ffffffffffffffffffffffffffffffffffffffff8316610b17576040517f08c379a000000000000000000000000000000000000000000000000000000000815260206004820152602560248201527f45524332303a207472616e736665722066726f6d20746865207a65726f20616460448201527f64726573730000000000000000000000000000000000000000000000000000006064820152608401610591565b73ffffffffffffffffffffffffffffffffffffffff8216610bba576040517f08c379a000000000000000000000000000000000000000000000000000000000815260206004820152602360248201527f45524332303a207472616e7366657220746f20746865207a65726f206164647260448201527f65737300000000000000000000000000000000000000000000000000000000006064820152608401610591565b610bc58383836110f5565b73ffffffffffffffffffffffffffffffffffffffff831660009081526033602052604090205481811015610c7b576040517f08c379a000000000000000000000000000000000000000000000000000000000815260206004820152602660248201527f45524332303a207472616e7366657220616d6f756e742065786365656473206260448201527f616c616e636500000000000000000000000000000000000000000000000000006064820152608401610591565b73ffffffffffffffffffffffffffffffffffffffff808516600090815260336020526040808220858503905591851681529081208054849290610cbf908490611420565b925050819055508273ffffffffffffffffffffffffffffffffffffffff168473ffffffffffffffffffffffffffffffffffffffff167fddf252ad1be2c89b69c2b068fc378daa952ba7f163c4a11628f55a4df523b3ef84604051610d2591815260200190565b60405180910390a3610a6e565b73ffffffffffffffffffffffffffffffffffffffff8216610dd5576040517f08c379a000000000000000000000000000000000000000000000000000000000815260206004820152602160248201527f45524332303a206275726e2066726f6d20746865207a65726f2061646472657360448201527f73000000000000000000000000000000000000000000000000000000000000006064820152608401610591565b610de1826000836110f5565b73ffffffffffffffffffffffffffffffffffffffff821660009081526033602052604090205481811015610e97576040517f08c379a000000000000000000000000000000000000000000000000000000000815260206004820152602260248201527f45524332303a206275726e20616d6f756e7420657863656564732062616c616e60448201527f63650000000000000000000000000000000000000000000000000000000000006064820152608401610591565b73ffffffffffffffffffffffffffffffffffffffff83166000908152603360205260408120838303905560358054849290610ed3908490611433565b909155505060405182815260009073ffffffffffffffffffffffffffffffffffffffff8516907fddf252ad1be2c89b69c2b068fc378daa952ba7f163c4a11628f55a4df523b3ef90602001610990565b505050565b600054610100900460ff16610fbf576040517f08c379a000000000000000000000000000000000000000000000000000000000815260206004820152602b60248201527f496e697469616c697a61626c653a20636f6e7472616374206973206e6f74206960448201527f6e697469616c697a696e670000000000000000000000000000000000000000006064820152608401610591565b6104cb8282611185565b73ffffffffffffffffffffffffffffffffffffffff8216611046576040517f08c379a000000000000000000000000000000000000000000000000000000000815260206004820152601f60248201527f45524332303a206d696e7420746f20746865207a65726f2061646472657373006044820152606401610591565b611052600083836110f5565b80603560008282546110649190611420565b909155505073ffffffffffffffffffffffffffffffffffffffff82166000908152603360205260408120805483929061109e908490611420565b909155505060405181815273ffffffffffffffffffffffffffffffffffffffff8316906000907fddf252ad1be2c89b69c2b068fc378daa952ba7f163c4a11628f55a4df523b3ef9060200160405180910390a35050565b73ffffffffffffffffffffffffffffffffffffffff821660009081526097602052604090205460ff1615610f23576040517f08c379a000000000000000000000000000000000000000000000000000000000815260206004820152600660248201527f46524f5a454e00000000000000000000000000000000000000000000000000006044820152606401610591565b600054610100900460ff1661121c576040517f08c379a000000000000000000000000000000000000000000000000000000000815260206004820152602b60248201527f496e697469616c697a61626c653a20636f6e7472616374206973206e6f74206960448201527f6e697469616c697a696e670000000000000000000000000000000000000000006064820152608401610591565b603661122883826114c3565b506037610f2382826114c3565b600060208083528351808285015260005b8181101561126257858101830151858201604001528201611246565b5060006040828601015260407fffffffffffffffffffffffffffffffffffffffffffffffffffffffffffffffe0601f8301168501019250505092915050565b803573ffffffffffffffffffffffffffffffffffffffff811681146112c557600080fd5b919050565b600080604083850312156112dd57600080fd5b6112e6836112a1565b946020939093013593505050565b60008060006060848603121561130957600080fd5b611312846112a1565b9250611320602085016112a1565b9150604084013590509250925092565b60006020828403121561134257600080fd5b5035919050565b60006020828403121561135b57600080fd5b611364826112a1565b9392505050565b6000806040838503121561137e57600080fd5b611387836112a1565b9150611395602084016112a1565b90509250929050565b600181811c908216806113b257607f821691505b6020821081036113eb577f4e487b7100000000000000000000000000000000000000000000000000000000600052602260045260246000fd5b50919050565b7f4e487b7100000000000000000000000000000000000000000000000000000000600052601160045260246000fd5b80820180821115610433576104336113f1565b81810381811115610433576104336113f1565b7f4e487b7100000000000000000000000000000000000000000000000000000000600052604160045260246000fd5b601f821115610f2357600081815260208120601f850160051c8101602086101561149c5750805b601f850160051c820191505b818110156114bb578281556001016114a8565b505050505050565b815167ffffffffffffffff8111156114dd576114dd611446565b6114f1816114eb845461139e565b84611475565b602080601f831160018114611544576000841561150e5750858301515b7fffffffffffffffffffffffffffffffffffffffffffffffffffffffffffffffff600386901b1c1916600185901b1785556114bb565b6000858152602081207fffffffffffffffffffffffffffffffffffffffffffffffffffffffffffffffe08616915b8281101561159157888601518255948401946001909101908401611572565b50858210156115cd57878501517fffffffffffffffffffffffffffffffffffffffffffffffffffffffffffffffff600388901b60f8161c191681555b5050505050600190811b0190555056fea2646970667358221220128adad9bcb673c013e9909dc742f0fb5c221641bbe8ee1d9327b0e7b8979fdd64736f6c63430008110033",
  "linkReferences": {},
  "deployedLinkReferences": {}
}