{
  "_format": "hh-sol-artifact-1",
  "contractName": "LibMemoryKVTest",
  "sourceName": "contracts/test/kv/LibMemoryKVTest.sol",
  "abi": [
    {
      "inputs": [
        {
          "internalType": "MemoryKV",
          "name": "kv_",
          "type": "uint256"
        },
        {
          "internalType": "MemoryKVKey",
          "name": "k_",
          "type": "uint256"
        }
      ],
      "name": "getPtr",
      "outputs": [
        {
          "internalType": "MemoryKVPtr",
          "name": "",
          "type": "uint256"
        }
      ],
      "stateMutability": "nonpayable",
      "type": "function"
    },
    {
      "inputs": [
        {
          "internalType": "MemoryKVPtr",
          "name": "ptr_",
          "type": "uint256"
        }
      ],
      "name": "readPtrVal",
      "outputs": [
        {
          "internalType": "MemoryKVVal",
          "name": "",
          "type": "uint256"
        }
      ],
      "stateMutability": "nonpayable",
      "type": "function"
    },
    {
      "inputs": [
        {
          "internalType": "MemoryKV",
          "name": "kv_",
          "type": "uint256"
        },
        {
          "internalType": "MemoryKVKey",
          "name": "k_",
          "type": "uint256"
        },
        {
          "internalType": "MemoryKVVal",
          "name": "v_",
          "type": "uint256"
        }
      ],
      "name": "setVal",
      "outputs": [
        {
          "internalType": "MemoryKV",
          "name": "",
          "type": "uint256"
        }
      ],
      "stateMutability": "nonpayable",
      "type": "function"
    },
    {
      "inputs": [
        {
          "internalType": "MemoryKV",
          "name": "kv_",
          "type": "uint256"
        }
      ],
      "name": "toUint256Array",
      "outputs": [
        {
          "internalType": "uint256[]",
          "name": "array_",
          "type": "uint256[]"
        }
      ],
      "stateMutability": "nonpayable",
      "type": "function"
    }
  ],
  "bytecode": "0x608060405234801561001057600080fd5b50610476806100206000396000f3fe608060405234801561001057600080fd5b506004361061004c5760003560e01c80631327afdb146100515780631f215993146100775780632100fbf514610097578063fb8f8bcd146100aa575b600080fd5b61006461005f366004610366565b6100bd565b6040519081526020015b60405180910390f35b61008a610085366004610392565b6100ef565b60405161006e91906103ab565b6100646100a5366004610392565b61011a565b6100646100b83660046103ef565b610148565b60006100c7610178565b60006100d4858585610180565b90506100de610178565b6100e7816101d9565b949350505050565b60606100f9610178565b61010282610210565b905061010c610178565b610115816102a0565b919050565b6000610124610178565b600061012f836102cf565b9050610139610178565b610142816101d9565b92915050565b6000610152610178565b600061015e8484610346565b9050610168610178565b610171816101d9565b9392505050565b6040516000a0565b60008061018d8585610346565b905061ffff81156101a3578360208301526101cf565b60405191506060820160405284825283602083015280861660408301528160028760101c0160101b1795505b5093949350505050565b6040518181527fe6fc1df15bb41e2a123ea1d440db6747be3ed04da67b92ac280ad10a97b799d8906020015b60405180910390a150565b606061ffff8216601083901c60008167ffffffffffffffff81111561023757610237610411565b604051908082528060200260200182016040528015610260578160200160208202803683370190505b50905060208101602082510281015b80821015610295578451825260208086015190830152604094850151949091019061026f565b509095945050505050565b7f268c78c0f09f13742966c15f2d15fde62853a37d13746874208d5aa07c53331d8160405161020591906103ab565b600080821161033e576040517f08c379a000000000000000000000000000000000000000000000000000000000815260206004820152600b60248201527f494e56414c49445f505452000000000000000000000000000000000000000000604482015260640160405180910390fd5b506020015190565b600061ffff8381165b80156100e757805184146100e7576040015161034f565b60008060006060848603121561037b57600080fd5b505081359360208301359350604090920135919050565b6000602082840312156103a457600080fd5b5035919050565b6020808252825182820181905260009190848201906040850190845b818110156103e3578351835292840192918401916001016103c7565b50909695505050505050565b6000806040838503121561040257600080fd5b50508035926020909101359150565b7f4e487b7100000000000000000000000000000000000000000000000000000000600052604160045260246000fdfea2646970667358221220f51ff71d20b732ae93d17995fb9e8b573d72f3f5ca9240b75882a5ff51e5750264736f6c63430008110033",
  "linkReferences": {},
  "deployedLinkReferences": {}
}